:020000040800F2
:10000000E806002029020008371B00083D190008F7
:10001000351B00083D040008C71E00080000000052
:100020000000000000000000000000003B1B000872
:10003000E904000800000000391B00083D1B00080F
:10004000430200084302000843020008430200087C
:100050004302000843020008EB04000843020008C2
:10006000430200084302000843020008430200085C
:10007000430200084302000843020008430200084C
:10008000430200084302000843020008430200083C
:10009000410400084D040008430200084302000820
:1000A000430200084302000843020008430200081C
:1000B000430200084302000843020008430200080C
:1000C00043020008430200084302000843020008FC
:1000D00043020008430200084302000843020008EC
:1000E00043020008430200084302000843020008DC
:1000F00043020008430200084302000843020008CC
:1001000043020008430200084302000843020008BB
:1001100043020008430200084302000843020008AB
:10012000430200084302000843020008430200089B
:10013000430200084302000843020008430200088B
:10014000430200084302000843020008430200087B
:10015000430200084302000843020008430200086B
:10016000430200084302000843020008430200085B
:100170004302000843020008430200080000000098
:10018000430200084302000800F002F800F03CF8C7
:100190000AA090E8000C82448344AAF10107DA45E2
:1001A00001D100F031F8AFF2090EBAE80F0013F0F8
:1001B000010F18BFFB1A43F001031847281E000067
:1001C000481E0000103A24BF78C878C1FAD85207F8
:1001D00024BF30C830C144BF04680C6070470000C1
:1001E0000023002400250026103A28BF78C1FBD840
:1001F000520728BF30C148BF0B6070471FB501F0E0
:10020000E3FE1FBD10B510BD00F0CFF81146FFF79B
:10021000F5FF01F069FE00F0EDF803B4FFF7F2FF1F
:1002200003BC00F0F5F80000094880470948004782
:10023000FEE7FEE7FEE7FEE7FEE7FEE7FEE7FEE796
:10024000FEE7FEE704480549054A064B70470000F3
:10025000D51B000889010008E8000020E8060020FE
:10026000E8020020E802002053EA020C00F0698056
:100270002DE9F04B4FF00006002B1FBFB3FA83F5BA
:1002800003FA05F424FA05F65E4012BF1643B2FAEB
:1002900082F502FA05F4C5F120051EBF22FA05FC1D
:1002A00044EA0C04203556EA044C4FEA144418BFC3
:1002B000641C4FF000084FF00009904271EB030CF2
:1002C00039D3002919BFB1FA81F701FA07F6B0FA5C
:1002D00080F700FA07F6C7F120071EBF20FA07FCD7
:1002E00046EA0C062037B6FBF4FCA7EB0507103FE7
:1002F00007F01F0BCBF120060CFA0BFB2CFA06F6CD
:1003000044BFB3460026202FA4BF5E464FF0000B2B
:100310005BEA060C08BF4FF0010B19EB0B09ABFBB6
:10032000027C48EB0608C01B06FB02CC0BFB03CC8F
:1003300071EB0C01C1E70B46024641464846BDE859
:10034000F08B13B54FF000004FF00001AFF30080C9
:10035000BDE81C4070474FF0000200B513469446BC
:100360009646203922BFA0E80C50A0E80C50B1F10D
:100370002001BFF4F7AF090728BFA0E80C5048BF21
:100380000CC05DF804EB890028BF40F8042B08BFBF
:10039000704748BF20F8022B11F0804F18BF00F8BB
:1003A000012B7047704770477047754600F02CF876
:1003B000AE4605006946534620F00700854618B052
:1003C00020B5FFF73FFFBDE820404FF000064FF09B
:1003D00000074FF000084FF0000B21F00701AC467A
:1003E000ACE8C009ACE8C009ACE8C009ACE8C00999
:1003F0008D46704710B50446AFF300802046BDE837
:100400001040FFF70ABF000000487047840000203A
:1004100001491820ABBEFEE726000200704700002D
:10042000024900200968C863704700003C000020B2
:1004300001490968C86370473C000020FEE70000DE
:10044000014800F0B6B9000014000020014800F097
:10045000B0B900001400002030B58BB08D0701F05A
:1004600003040CD5C2F34F35D20042EA4402CDE971
:100470000052DA040292DA0042EA440205E0520134
:10048000009262005B01CDE901230392CA08C1F327
:100490008001CDE9041201220021CDE906120E21CE
:1004A00009910892694600F083F80BB030BD10B591
:1004B000044600F061FB2068416941F0020141619E
:1004C0002068416941F01001416110BD00B587B05D
:1004D0000091002101910291CDE9031306AB694619
:1004E00000F008F807B000BD7047012000F08CBB99
:1004F00072B6FEE7F0B590F820500468A468012DAC
:1005000005D0022D03D0416A41F480214DE014F062
:10051000406F01D1E50045D5C4F301640125A54034
:100520001D608D684FF4C0739DB1CE6835434E6831
:1005300045EAC605066803EB0417F5514FF4C2758A
:10054000076805EB04150E697E51097D012905D068
:1005500009E00E88CD6845EA4655EBE701684E593B
:1005600046F480764E511179D2F805504FF4C67694
:1005700041EA0521056806EB0416A9511178D2F865
:1005800001204FF4C47541EA0221026805EB04150D
:100590005151006803EB0411425842F001024250ED
:1005A0000020F0BD416A41F4001141620120F0BD1C
:1005B00010B590F82020012A07D0022A05D0416A00
:1005C00041F480214162012010BD3B48D0F8002257
:1005D00042F00102C0F80022D0F8002222F47C523E
:1005E000C0F80022D0F800224B6A42EA0322C0F889
:1005F00000220A7D02F01F0301229A40D0F81C322B
:100600009343C0F81C32CB69B3B9D0F80C32934392
:10061000C0F80C328C894B6864F31F434C6900EBC3
:10062000C404C4F840320C890B6864F31F434C695E
:1006300000EBC404C4F84432CB69012B16D1D0F8C6
:100640000C321343C0F80C320C884B6864F31F4320
:100650004C6900EBC404C4F840320C89CB6864F3E5
:100660001F434C6900EBC404C4F844328B69002B6F
:10067000D0F804320ED01343C0F804320B69002BBB
:10068000D0F8143208D01343C0F81432096A012993
:1006900004D008E09343EFE79343F5E7D0F81C124A
:1006A0001143C0F81C12D0F8001221F00101C0F86B
:1006B0000012002010BD000000640040704770B5BB
:1006C00090F82040012C05D0022C03D0416A41F45F
:1006D000802128E0046809B32469A40720D04FF4DE
:1006E000D874056804EB01142D5915F004059560C4
:1006F00005682D591AD0ED08556005682C5904F08D
:100700000204D4604FF4DA74056804EB01142E5926
:1007100006F00F06082E0CD308250DE0E468DCE790
:10072000416A41F400114162012070BD6D0D1560F8
:10073000E3E72D5905F00F05156105682D59C5F33F
:100740000725956105682C59240C54614FF4DC721F
:10075000046802EB0112A4581C700468A458240A0F
:100760005C700468A458240C9C700468A258120E93
:10077000DA704FF4DE72046802EB0112A4581C71A7
:100780000468A458240A5C710468A458240C9C7161
:100790000468A258120EDA71006829B1016941F0AB
:1007A00020010161002070BDC16841F02001C160DD
:1007B000F8E72DE9F05F0546006800244669D0F8A7
:1007C00004908768D0F80CB0D0F810A0D0F818804A
:1007D000F10748D0F90714D001218160B80703D58B
:1007E000284600F0F6F90CE0780702D54FF40064D3
:1007F00007E0380702D54FF4805402E0284600F0A5
:10080000E7F9F80516D529684FF480708860B805B7
:1008100003D5284600F0DFF90CE0780502D544F452
:10082000005407E0380502D544F4804402E028462D
:1008300000F0D0F9F80316D529684FF480308860AD
:10084000B80303D5284600F0C8F90CE0780302D5B8
:1008500044F4004407E0380302D544F4803402E055
:10086000284600F0B9F9300707D55FEACB6004D518
:100870002968102044F40074C86070074FF008071E
:1008800007D55FEA0B7004D52868C760284600F0DA
:1008900061F9B00706D52868C068800702D02846ED
:1008A00000F059F9700607D55FEACA6004D52968D7
:1008B000102044F480640861B00607D55FEA0A702E
:1008C00004D528680761284600F046F9F00606D5E9
:1008D00028680069800702D0284600F03EF9B0037E
:1008E00008D55FEAC96005D5296810204860284608
:1008F00000F040F9F00307D55FEA097004D52868D5
:100900004760284600F06AF9300446D55FEA49702E
:1009100040D5F00504D55FEAC87001D044F0010469
:10092000B00504D55FEA887001D544F00204700573
:1009300004D55FEA487001D544F00404300529D598
:1009400018F0700F26D008F07000402815D006DC93
:10095000102809D020280AD0302816D10AE05028C3
:100960000ED0602811D10EE044F008040DE044F0F0
:1009700010040AE044F0200407E044F0400404E0DE
:1009800044F0800401E044F480742868816921F017
:1009900070018161296804204860002C05D0686AD4
:1009A000204368622846FFF789FEBDE8F09F70B5D6
:1009B000040003D094F8200010B104E0012070BDC1
:1009C000204600F081F82068016841F001010160D3
:1009D00000F028FA0546052604E000F023FA401B43
:1009E0000A2811D820684068C007F6D0206801683E
:1009F00021F00201016000F015FA05460BE000F05D
:100A000011FA401B0A2806D9606A40F4003060627F
:100A100084F82060D2E7206840688007EFD4207E09
:100A20000128206801683DD021F080010160607ECE
:100A300001282068016838D021F040010160A07EC3
:100A400001282068016833D021F020010160E07E98
:100A50000128206801682ED041F010010160207F3C
:100A600001282068016829D021F008010160607F19
:100A700001282068016824D021F004010160D4E934
:100A800002010843D4E90412114308436168491E76
:100A900008432168C86100206062012084F82000BA
:100AA000002070BD41F08001C0E741F04001C5E782
:100AB00041F02001CAE721F01001CFE741F0080121
:100AC000D4E741F00401D9E710B586B004461421FB
:100AD0006846FFF740FC1C492068884231D11B481A
:100AE0000021026842F000720260006800F00070AD
:100AF000059016481038026842F002020260006851
:100B000000F0020005904FF4407000900220CDE903
:100B10000101032003900920049069460C4800F06D
:100B20007FF800221146142000F0EAF9142000F0AA
:100B3000D9F900221146152000F0E2F9152000F045
:100B4000D1F906B010BD00000064004040380240FA
:100B50000004024070477047704700B589B007AB8A
:100B60006A460121FFF7ABFD9DF81C0000F002FF73
:100B700009B000BD7047000070B5044690F8200031
:100B8000012804D0606A40F40020606218E002206E
:100B900084F820002068016821F00101016000F064
:100BA00041F905460EE000BF00F03CF9401B0A2861
:100BB00008D9606A40F400306062052084F82000A3
:100BC000012070BD20684068C007EDD1606270BD33
:100BD0007047704770477047704770477047000014
:100BE00070B5044600F01EF90546601C02D00448AA
:100BF0000078044400F016F9401BA042FAD370BDFF
:100C00000400002070470000044910B50A68024241
:100C100002D00860FFF7F6FF10BD0000143C014051
:100C20002DE9F84FDFF8BCA10022012503264FF083
:100C30000F090AF1040BAAF1040E00BF0B6805FAB4
:100C400002F42340A34270D10F7907F00307012F6C
:100C500001D0022F16D187684FEA420806FA08FC35
:100C600027EA0C07D1F80CC00CFA08FC4CEA070C78
:100C7000C0F808C04768A7430C79C4F30014944037
:100C80003C4344600C79E443A4070AD0C4684FEAAB
:100C9000420C06FA0CF7BC438F6807FA0CF727439F
:100CA000C7600C7904F00304022C12D1D40800EBC5
:100CB000840CDCF820405707FF0E09FA07F824EAF5
:100CC0000804D1F8108008FA07F848EA0408CCF8BC
:100CD000208004684FEA420C06FA0CF7BC430F79F7
:100CE00007F0030707FA0CF7274307604C6814F472
:100CF000403F70D03C4C276847F480472760246809
:100D000022F0030704F480440094384C07EB040CF1
:100D1000DCF8084897074FEA177809FA08F7BC4348
:100D2000334FB84202D1002724E054E0314FB8429B
:100D300001D101271EE0304FB84201D1022719E04E
:100D40002E4FB84201D1032714E02D4FB84201D1F4
:100D500004270FE02B4FB84201D105270AE02A4FA4
:100D6000B84201D1062705E0284FB84201D1072734
:100D700000E0082707FA08F72743CCF80878DAF8E4
:100D800000405746D1F804C09C435FEACC2C00D504
:100D90001C433C60DBF800405F46D1F804C09C4334
:100DA0005FEA8C2C00D51C433C60DEF8004077469F
:100DB000D1F804C09C435FEA8C3C00D51C433C60E6
:100DC000084F083F3C68D1F804C09C435FEACC3C24
:100DD00000D51C433C60521C102AFFF42FAFBDE825
:100DE000F88F0000083C01404438024000300140C8
:100DF000000002400004024000080240000C0240D3
:100E0000001002400014024000180240001C024082
:100E10000069084000D0012070470AB18161704725
:100E20000904FBE7014880687047000004000020C7
:100E300002488168027811448160704704000020F4
:100E40000B4810B5016841F400710160016841F47C
:100E500080610160016841F480710160032000F04D
:100E60006FF80F2000F006F800F024F8002010BD05
:100E7000003C024070B50D4D04464FF47A7128785D
:100E8000B1FBF0F00A490968B1FBF0F000F0ECFAB0
:100E900048B9102C07D200222146501E00F030F82D
:100EA00000206C6070BD012070BD000004000020B7
:100EB000100000200A4808B5016841F48041016033
:100EC000006800F4804000900548001F016841F070
:100ED00080510160006800F08050009008BD000063
:100EE00044380240002809DB00F01F020121914034
:100EF0004009800000F1E020C0F8001170470000B8
:100F0000F0B40E4B1B680C46C3F30223C3F1070574
:100F1000042D00D90425191D072901D2002300E062
:100F2000DB1E012606FA05F1491E214099409E402C
:100F3000761E16403143F0BC00F0C6BF0CED00E059
:100F4000064900F0070208684FF6FF03184040EA20
:100F50000220034A10430860704700000CED00E0D7
:100F60000000FA052DE9F0470E46050065D0DFF8D0
:100F70001481D8F80000F7B200F00700B04207D2A1
:100F800088F80070D8F8000000F00700B04254D193
:100F900028683D4C810712D5400703D5206840F4EE
:100FA000E05020602878000703D5206840F46040B6
:100FB00020602068A96820F0F000084320602878AD
:100FC000C0072DD0304968680839012812D002289E
:100FD00013D0032811D00968890700292DDA216868
:100FE00021F0030101432160FFF71CFF814641F21C
:100FF000883A0EE009688903EFE709688901ECE7A0
:10100000FFF710FFA0EB0901514502D90320BDE80D
:10101000F0872068696800F00C00B0EB810FEFD119
:10102000D8F80010404601F00701B14207D9077017
:10103000006800F00700B04201D00120E7E72878FF
:10104000400705D52068E96820F4E0500843206097
:101050002878000706D52068296920F4604040EA16
:10106000C100206000F018F82168084AC1F303119C
:10107000515CC8400649086006480068FFF7FAFE60
:101080000020C4E7003C024008380240D21F00089C
:101090001000002008000020154810B5006810F06E
:1010A0000C02144813D01449042A0FD0082A0ED178
:1010B0000F4C241F2268236802F03F025B0207D511
:1010C0002068C0F38810A0FB010106E0084610BDAF
:1010D0002168C1F38811A1FB00010023FFF7C4F8C8
:1010E0002168C1F30141491C4900B0FBF1F010BD7A
:1010F000083802400024F400001BB7002DE9F84F27
:1011000004006ED02078DFF84C93C007A9F10405E5
:101110004AD009F104000168C1F38101012908D016
:101120000068C0F3810002280AD1D9F8000040020B
:1011300006D52868800337D560680028E1D033E001
:101140006068B0F5803F10D0B0F5A02F286810D0AF
:1011500020F480302860286820F4802028606068AF
:10116000A8B1FFF75FFE06460DE0286840F4803026
:10117000F4E740F480202860F7E700BFFFF752FE55
:10118000801B642873D828688003F7D50CE0FFF72C
:1011900049FE064605E000BFFFF744FE801B6428B9
:1011A000F0D828688003F7D42078DFF8AC82800775
:1011B0004FF0000A3ED5A748001D016811F00C0F42
:1011C00008D00068C0F3810002280BD1D9F80000D4
:1011D000400207D42868800716D5E068012800D1AE
:1011E00012E033E1E068B8B10120C8F80000FFF771
:1011F00019FE064605E000BFFFF714FE801B02281B
:10120000C0D828688007F7D52868216920F0F80041
:1012100040EAC10028600DE0C8F800A0FFF702FE18
:10122000064604E0FFF7FEFD801B02281FD8286851
:101230008007F7D42078000722D5864F8748616958
:10124000703771B101210160FFF7ECFD064604E043
:10125000FFF7E8FD801B022809D838688007F7D51A
:101260000EE0C0F800A0FFF7DDFD064605E082E0D5
:10127000FFF7D8FD801B02287DD838688007F7D497
:101280002078400768D5DFF8CCB100270BF13C0B84
:10129000DBF80000C0000BD4DBF8001041F08051F7
:1012A000CBF80010DBF80000012700F08050009020
:1012B0006B4E3068C00510D4306840F480703060E8
:1012C000FFF7B0FD009005E0FFF7ACFD0099401A74
:1012D000022850D83068C005F6D55E4EA0686C363E
:1012E00001280FD00528306810D020F001003060B0
:1012F000306820F004003060A068B8B1FFF792FDBC
:1013000000900FE0306840F00100F4E740F0040086
:101310003060F7E7FFF786FD0099411A41F2883007
:10132000814266D830688007F4D50EE0FFF77AFD79
:10133000009007E0FFF776FD0099411A41F28830EE
:10134000814256D830688007F4D42FB1DBF8001002
:1013500021F08051CBF80010A069C8B33D49091DA8
:101360000968C1F3810102294AD00228504607D0FA
:10137000C8F8600000E03CE0FFF754FD04463BE0A5
:101380004746C8F86000FFF74DFD064605E000BF80
:10139000FFF748FD801B02282BD828688001F7D46E
:1013A000D4E907010843A16A2E4A490802EB01412A
:1013B000626A41EA8211084394F82C1040EA016104
:1013C000C9F8001001203866FFF72CFD044606E03E
:1013D0003EE000BFFFF726FD001B022809D8286861
:1013E0008001F7D534E000BFFFF71CFD001B022889
:1013F00002D90320BDE8F88F28688001F4D427E0E3
:101400000128F7D0D9F80000E26900F48001914288
:101410001CD1226A00F03F01914217D147F6C071FA
:10142000626A0140B1EB821F10D1A26A4FF0FF3314
:1014300000F4403103EB5202B1EB024F06D194F8B5
:101440002C1000F07060B0EB016F01D00120D1E7EB
:101450000020CFE70438024000004742800E474298
:10146000007000400000FFFF10B5401EB0F1807F0B
:1014700001D3012010BD4FF0E02460610F216017FF
:1014800000F022FD0020A06107202061002010BD97
:1014900070B590F83C20012A32D0012480F83C40FD
:1014A000022280F83D2003685A689D6822F0700689
:1014B0000A6832435A60134B02689A4214D0B2F160
:1014C000804F11D0104B9A420ED0104B9A420BD045
:1014D0000F4B9A4208D00F4B9A4205D00E4B9A42BE
:1014E00002D00E4B9A4204D1496825F0800319437B
:1014F000916080F83D40002180F83C10084670BDA6
:10150000022070BD000001400004004000080040BF
:10151000000C004000040140004001400018004061
:1015200010B5040003D094F83D0010B107E001208D
:1015300010BD002084F83C00204600F01FF8022077
:1015400084F83D00211D206800F04CFB012084F848
:10155000460084F83E0084F83F0084F8400084F898
:10156000410084F8420084F8430084F8440084F881
:10157000450084F83D00002010BD000008B500685B
:101580000649884208D10648016841F0040101601B
:10159000006800F00400009008BD00000008004052
:1015A0004038024090F83D10012901D001207047D9
:1015B000022180F83D1000681149884214D0B0F132
:1015C000804F11D00F4988420ED00F4988420BD06E
:1015D0000E49884208D00E49884205D00D498842FC
:1015E00002D00D49884204D1816801F00701062923
:1015F00003D0016841F00101016000207047000044
:10160000000001400004004000080040000C0040C1
:1016100000040140004001400018004070B504463D
:1016200090F83C000025012817D0012684F83C6082
:10163000022084F83D002068826822F0770222F4BC
:101640007F4282600868502838D00DDC20284FD0B7
:1016500005DC90B3102811D14AE0022070BD30287B
:1016600046D040280AD13BE060282FD070280DD00A
:10167000B0F5805F03D0B0F5005F12D0012584F88B
:101680003D60002084F83C00284670BDCB68D1E95D
:101690000121206800F01FFB2068816841F077017C
:1016A00009E0CB68D1E90121206800F014FB206833
:1016B000816841F480418160E1E719E0CA684968C6
:1016C000206800F0DDFB5021206806E0CA68496808
:1016D000206800F0E6FB6021206800F006FBCEE702
:1016E000CA684968206800F0CBFB40212068F4E715
:1016F000226801461046F0E710B586B00446142172
:101700006846FEF728FE0E492068884215D10D482C
:101710000021026842F008020260006800F0080040
:1017200005904FF4804000900220CDE90101CDE901
:10173000031069460448FFF773FA06B010BD0000B5
:101740000008004030380240000C024070B50446EA
:1017500090F83C0000260D4601280FD0012084F8A7
:101760003C006AB1042A1DD0082A2FD00C2A3FD091
:101770000126002084F83C00304670BD022070BD78
:10178000206800F0BBFA2068816941F0080181619E
:101790002068816921F004018161206881692A69DA
:1017A000114311E0206800F0D9FA2068816941F402
:1017B000006181612068816921F480618161206814
:1017C00081692A6941EA02218161D2E7206800F03B
:1017D000FBFA2068C16941F00801C1612068C16954
:1017E00021F00401C1612068C1692A69114311E037
:1017F000206800F01DFB2068C16941F40061C161EF
:101800002068C16921F48061C1612068C1692A69C9
:1018100041EA0221C161ACE710B5040003D094F89D
:101820003D0010B107E0012010BD002084F83C000D
:10183000204600F01EF8022084F83D00211D20689B
:1018400000F0D0F9012084F8460084F83E0084F8C6
:101850003F0084F8400084F8410084F8420084F896
:10186000430084F8440084F8450084F83D000020DB
:1018700010BD704710B50446022249B104290ED0AC
:10188000082913D094F84100012816D0012010BD7A
:1018900094F83E000128F9D184F83E200FE094F836
:1018A0003F000128F2D184F83F2008E094F840007E
:1018B0000128EBD184F8402001E084F84120012286
:1018C000206800F0FBF916492068164A884201D0CA
:1018D000904203D1436C43F4004343642068884240
:1018E00013D0B0F1804F10D00F4988420DD00F496E
:1018F00088420AD00E49884207D0904205D00D494F
:10190000884202D00C49884204D1816801F0070165
:10191000062903D0016841F001010160002010BDDB
:1019200000000140000401400004004000080040A5
:10193000000C00400040014000180040FEE700009D
:1019400070B50B4D002401212846FFF761FA60B9FC
:101950001420FFF745F901212846FFF759FA00281E
:10196000F9D01420FFF73CF90124204670BD000097
:101970000000024070B540F300020C4D04464FF4E5
:1019800080612846521CFFF748FA44F34002E914EC
:101990002846521CFFF741FA44F38002A914284656
:1019A000BDE87040521CFFF738BA0000001C02402E
:1019B000104810B50E490160032141604FF080418D
:1019C000816000214FF41022C0E903124FF400128D
:1019D0004261017641768176C17601774177FEF7E3
:1019E000E6FF002803D0BDE81040FEF781BD10BD22
:1019F000006400401400002070B586B014216846D1
:101A0000FEF7A9FC22480025016841F002010160AF
:101A1000016801F002010591016841F001010160D6
:101A2000016801F001010591016841F08001016048
:101A3000016801F080010591016841F00801016031
:101A40000068144E00F008004FF4E05405900122A5
:101A500021463046FFF7E1F90094012469463046FB
:101A60000194CDE90245FFF7DBF84FF44410CDE9CE
:101A70000040694608480294FFF7D2F80022114658
:101A80000620FFF73DFA0620FFF72CFA06B070BDDE
:101A900030380240001C02400000024010B58EB0F9
:101AA00000240794089409940A940B941C21684616
:101AB0000C94FEF750FC1E481C49C0E9001445F286
:101AC0000721C0E9024104618461FFF729FD08B1E3
:101AD000FEF70EFD4FF48050079007A91448FFF75A
:101AE0009DFD08B1FEF704FD1148FFF795FE08B112
:101AF000FEF7FEFC0B940BA90D480C94FFF7C8FCF5
:101B000008B1FEF7F5FC6020CDE90004029408223C
:101B1000694607480494FFF719FE08B1FEF7E8FC90
:101B20000348FFF7E9FD0EB010BD000000080040BB
:101B30003C000020FEE7FEE770477047FFF778B9EA
:101B400030B593B030216846FEF705FC14210CA88F
:101B5000FEF701FC1D480025016841F0805101603D
:101B6000006800F0805011901948016841F48041EC
:101B700001600068022400F4804011900120009070
:101B8000000401908001CDE9064006200890A820BD
:101B9000CDE9090404200B906846FFF7AFFA08B1BD
:101BA00072B6FEE70CA90F2081E831004FF4A05077
:101BB0000F904FF48050109005210CA8FFF7D2F938
:101BC000002801D072B6FEE713B030BD40380240A5
:101BD000007000400248016841F4700101607047E4
:101BE00088ED00E0F0B50268294C2A4D2A4E2B4FB3
:101BF0002B4B4FF0804CA04209D0604507D0A84243
:101C000005D0B04203D0B84201D0984204D122F0AE
:101C1000700E4A6842EA0E02A0421BD0604519D0FD
:101C2000A84217D0B04215D0B84213D0984211D074
:101C30001C4DA8420ED01C4DA8420BD01B4DA842F3
:101C400008D01B4DA84205D01A4DA84202D01A4D0B
:101C5000A84203D122F44075CA682A434D6922F094
:101C600080022A4302608A68C2620A688262A042D5
:101C700001D0984201D109690163012141610169E3
:101C8000C90703D0016921F001010161F0BD000025
:101C9000000001400004004000080040000C00402B
:101CA0000004014000400140004401400048014060
:101CB00000180040001C00400020004010B501F05A
:101CC0001F030121046A99408C430462016A9A400F
:101CD0001143016210BD10B5846842EA032224F466
:101CE0007F440A432243826010BD826822F0700262
:101CF0000A4342F00701816070470000F0B5036AB3
:101D0000026A22F00102026242688469124E24F0E3
:101D100073050C682C4323F002058B682B430D4D93
:101D2000A84201D0B04205D123F00807CB683B435D
:101D300023F00403A84201D0B04205D14D6922F43A
:101D4000407215438A692A4342608461496841634D
:101D50000362F0BD0000014000040140F0B5026ADA
:101D6000036A23F010030362436884690D6824F456
:101D7000E64444EA05248D6822F0200242EA051276
:101D80000F4D104EA84201D0B04206D1CF6822F0CC
:101D9000800242EA071222F04002A84201D0B0427B
:101DA00007D14D6923F4406343EA85038D6943EA13
:101DB000850343608461496881630262F0BD00006D
:101DC0000000014000040140F0B5026A036A23F4F8
:101DD000807303624368C46922F4007224F07305BF
:101DE0000C68124E2C438D6842EA05220E4DA84223
:101DF00001D0B04206D1CF6822F4006242EA072245
:101E000022F48062A84201D0B04207D14D6923F488
:101E1000405343EA05138D6943EA05134360C461E7
:101E20004968C1630262F0BD000001400004014046
:101E300030B5046A026A22F4805202624268C369C1
:101E40000D6823F4E64343EA05238D6824F4005427
:101E500044EA0534084DA84202D0084DA84204D1F6
:101E60004D6922F4804242EA85124260C3614968AA
:101E70000164046230BD0000000001400004014024
:101E800010B5036A046A24F001040462846924F032
:101E9000F00444EA021423F00A020A438461026255
:101EA00010BD10B5036A046A24F01004046284694A
:101EB00023F0A00324F4704444EA023243EA0111FF
:101EC0008261016210BDFEE70907090E002804DBEC
:101ED00000F1E02080F80014704700F00F0000F1DE
:101EE000E02080F8141D704708B5FEF7A9FFFFF742
:101EF00027FEFFF781FDFFF75BFDFFF7CFFD002514
:101F00008DF800502C48FEF7D2FA4FF48A7740F251
:101F1000FF733A466C212848FEF79EFA2748FFF7E0
:101F200041FB08212548FFF7A5FC254C012600BFF1
:101F3000FFF706FD2070012802D16078401C607018
:101F40006078042800D96570607805282DD2DFE814
:101F500000F003191C1E2200DFF8688000224FF4F5
:101F600080614046FEF759FF00224FF40061404671
:101F7000FEF753FF00224FF480514046FEF74DFF1D
:101F8000FEF74EFA8DF800600FE0022000E003201B
:101F90008DF8000009E066806088FEF749FA6088E5
:101FA000401C80B260806428F6D901236A46394615
:101FB0000148FEF78BFABBE7140000203C0000202C
:101FC00000000020001C02404FF04070E1EE100ABB
:101FD0007047000000000000000001020304060733
:101FE0000809000004200008000000201400000080
:101FF000C40100081820000814000020D4060000C6
:10200000E0010008000000000100000010000000D6
:08201000000000000024F400B0
:040000050800018965
:00000001FF
